{
  "_format": "hh-sol-artifact-1",
  "contractName": "SealedBidAuction",
  "sourceName": "contracts/SealedBidAuction.sol",
  "abi": [
    {
      "inputs": [
        {
          "internalType": "uint256",
          "name": "biddingDuration",
          "type": "uint256"
        },
        {
          "internalType": "string",
          "name": "auctionItemName",
          "type": "string"
        }
      ],
      "stateMutability": "nonpayable",
      "type": "constructor"
    },
    {
      "inputs": [],
      "name": "AuctionAlreadyEnded",
      "type": "error"
    },
    {
      "inputs": [],
      "name": "AuctionAlreadyFinalized",
      "type": "error"
    },
    {
      "inputs": [],
      "name": "AuctionNotEnded",
      "type": "error"
    },
    {
      "inputs": [],
      "name": "AuctionStillActive",
      "type": "error"
    },
    {
      "inputs": [],
      "name": "BidAlreadySubmitted",
      "type": "error"
    },
    {
      "inputs": [],
      "name": "InvalidWinnerId",
      "type": "error"
    },
    {
      "inputs": [],
      "name": "NoBidYet",
      "type": "error"
    },
    {
      "inputs": [],
      "name": "OnlyOwner",
      "type": "error"
    },
    {
      "inputs": [],
      "name": "ResultAlreadyPublished",
      "type": "error"
    },
    {
      "inputs": [
        {
          "internalType": "bytes32",
          "name": "handle",
          "type": "bytes32"
        },
        {
          "internalType": "address",
          "name": "sender",
          "type": "address"
        }
      ],
      "name": "SenderNotAllowedToUseHandle",
      "type": "error"
    },
    {
      "inputs": [],
      "name": "ZamaProtocolUnsupported",
      "type": "error"
    },
    {
      "anonymous": false,
      "inputs": [
        {
          "indexed": true,
          "internalType": "uint256",
          "name": "timestamp",
          "type": "uint256"
        }
      ],
      "name": "AuctionFinalized",
      "type": "event"
    },
    {
      "anonymous": false,
      "inputs": [
        {
          "indexed": true,
          "internalType": "address",
          "name": "bidder",
          "type": "address"
        },
        {
          "indexed": true,
          "internalType": "uint32",
          "name": "bidderId",
          "type": "uint32"
        },
        {
          "indexed": true,
          "internalType": "uint256",
          "name": "timestamp",
          "type": "uint256"
        }
      ],
      "name": "BidSubmitted",
      "type": "event"
    },
    {
      "anonymous": false,
      "inputs": [
        {
          "indexed": false,
          "internalType": "uint32",
          "name": "winnerId",
          "type": "uint32"
        },
        {
          "indexed": false,
          "internalType": "address",
          "name": "winner",
          "type": "address"
        },
        {
          "indexed": false,
          "internalType": "uint32",
          "name": "highestBid",
          "type": "uint32"
        },
        {
          "indexed": false,
          "internalType": "uint32",
          "name": "vickreyPrice",
          "type": "uint32"
        }
      ],
      "name": "ResultPublished",
      "type": "event"
    },
    {
      "inputs": [],
      "name": "auctionEndTime",
      "outputs": [
        {
          "internalType": "uint256",
          "name": "",
          "type": "uint256"
        }
      ],
      "stateMutability": "view",
      "type": "function"
    },
    {
      "inputs": [],
      "name": "auctionEnded",
      "outputs": [
        {
          "internalType": "bool",
          "name": "",
          "type": "bool"
        }
      ],
      "stateMutability": "view",
      "type": "function"
    },
    {
      "inputs": [],
      "name": "bidCount",
      "outputs": [
        {
          "internalType": "uint32",
          "name": "",
          "type": "uint32"
        }
      ],
      "stateMutability": "view",
      "type": "function"
    },
    {
      "inputs": [
        {
          "internalType": "uint32",
          "name": "id",
          "type": "uint32"
        }
      ],
      "name": "bidderById",
      "outputs": [
        {
          "internalType": "address",
          "name": "bidder",
          "type": "address"
        }
      ],
      "stateMutability": "view",
      "type": "function"
    },
    {
      "inputs": [
        {
          "internalType": "address",
          "name": "bidder",
          "type": "address"
        }
      ],
      "name": "bidderIds",
      "outputs": [
        {
          "internalType": "uint32",
          "name": "id",
          "type": "uint32"
        }
      ],
      "stateMutability": "view",
      "type": "function"
    },
    {
      "inputs": [],
      "name": "confidentialProtocolId",
      "outputs": [
        {
          "internalType": "uint256",
          "name": "",
          "type": "uint256"
        }
      ],
      "stateMutability": "view",
      "type": "function"
    },
    {
      "inputs": [],
      "name": "endAuction",
      "outputs": [],
      "stateMutability": "nonpayable",
      "type": "function"
    },
    {
      "inputs": [
        {
          "internalType": "address",
          "name": "bidder",
          "type": "address"
        }
      ],
      "name": "getEncryptedBid",
      "outputs": [
        {
          "internalType": "euint32",
          "name": "",
          "type": "bytes32"
        }
      ],
      "stateMutability": "view",
      "type": "function"
    },
    {
      "inputs": [],
      "name": "getEncryptedWinnerId",
      "outputs": [
        {
          "internalType": "euint32",
          "name": "",
          "type": "bytes32"
        }
      ],
      "stateMutability": "view",
      "type": "function"
    },
    {
      "inputs": [],
      "name": "getHighestBid",
      "outputs": [
        {
          "internalType": "euint32",
          "name": "",
          "type": "bytes32"
        }
      ],
      "stateMutability": "view",
      "type": "function"
    },
    {
      "inputs": [],
      "name": "getSecondHighestBid",
      "outputs": [
        {
          "internalType": "euint32",
          "name": "",
          "type": "bytes32"
        }
      ],
      "stateMutability": "view",
      "type": "function"
    },
    {
      "inputs": [],
      "name": "hasAnyBid",
      "outputs": [
        {
          "internalType": "bool",
          "name": "",
          "type": "bool"
        }
      ],
      "stateMutability": "view",
      "type": "function"
    },
    {
      "inputs": [
        {
          "internalType": "address",
          "name": "bidder",
          "type": "address"
        }
      ],
      "name": "hasBid",
      "outputs": [
        {
          "internalType": "bool",
          "name": "submitted",
          "type": "bool"
        }
      ],
      "stateMutability": "view",
      "type": "function"
    },
    {
      "inputs": [],
      "name": "isActive",
      "outputs": [
        {
          "internalType": "bool",
          "name": "",
          "type": "bool"
        }
      ],
      "stateMutability": "view",
      "type": "function"
    },
    {
      "inputs": [],
      "name": "itemName",
      "outputs": [
        {
          "internalType": "string",
          "name": "",
          "type": "string"
        }
      ],
      "stateMutability": "view",
      "type": "function"
    },
    {
      "inputs": [],
      "name": "nextBidderId",
      "outputs": [
        {
          "internalType": "uint32",
          "name": "",
          "type": "uint32"
        }
      ],
      "stateMutability": "view",
      "type": "function"
    },
    {
      "inputs": [],
      "name": "owner",
      "outputs": [
        {
          "internalType": "address",
          "name": "",
          "type": "address"
        }
      ],
      "stateMutability": "view",
      "type": "function"
    },
    {
      "inputs": [],
      "name": "publicHighestBid",
      "outputs": [
        {
          "internalType": "uint32",
          "name": "",
          "type": "uint32"
        }
      ],
      "stateMutability": "view",
      "type": "function"
    },
    {
      "inputs": [],
      "name": "publicVickreyPrice",
      "outputs": [
        {
          "internalType": "uint32",
          "name": "",
          "type": "uint32"
        }
      ],
      "stateMutability": "view",
      "type": "function"
    },
    {
      "inputs": [],
      "name": "publicWinner",
      "outputs": [
        {
          "internalType": "address",
          "name": "",
          "type": "address"
        }
      ],
      "stateMutability": "view",
      "type": "function"
    },
    {
      "inputs": [],
      "name": "publicWinnerId",
      "outputs": [
        {
          "internalType": "uint32",
          "name": "",
          "type": "uint32"
        }
      ],
      "stateMutability": "view",
      "type": "function"
    },
    {
      "inputs": [
        {
          "internalType": "uint32",
          "name": "winnerId",
          "type": "uint32"
        },
        {
          "internalType": "uint32",
          "name": "highestBidPlain",
          "type": "uint32"
        },
        {
          "internalType": "uint32",
          "name": "vickreyPricePlain",
          "type": "uint32"
        }
      ],
      "name": "publishResult",
      "outputs": [],
      "stateMutability": "nonpayable",
      "type": "function"
    },
    {
      "inputs": [],
      "name": "resultPublished",
      "outputs": [
        {
          "internalType": "bool",
          "name": "",
          "type": "bool"
        }
      ],
      "stateMutability": "view",
      "type": "function"
    },
    {
      "inputs": [
        {
          "internalType": "externalEuint32",
          "name": "inputBid",
          "type": "bytes32"
        },
        {
          "internalType": "bytes",
          "name": "inputProof",
          "type": "bytes"
        }
      ],
      "name": "submitBid",
      "outputs": [],
      "stateMutability": "nonpayable",
      "type": "function"
    }
  ],
  "bytecode": "0x60806040526008805463ffffffff1916600117905534801561001f575f5ffd5b5060405161184338038061184383398101604081905261003e916102e7565b6100f2610049610124565b80517f9e7b61f58c47dc699ac88507c4f5bb9f121c03808c5676a8078fe583e464970080546001600160a01b03199081166001600160a01b039384161790915560208301517f9e7b61f58c47dc699ac88507c4f5bb9f121c03808c5676a8078fe583e46497018054831691841691909117905560408301517f9e7b61f58c47dc699ac88507c4f5bb9f121c03808c5676a8078fe583e46497028054909216921691909117905550565b5f80546001600160a01b0319163317905561010d82426103a2565b600255600161011c828261044b565b505050610505565b604080516060810182525f8082526020820181905291810191909152466001036101bd575060408051606080820183525f8083526020808401829052928401528251908101835273ca2e8f1f656cd25c01f05d0b243ab1ecd4a8ffb6815273d82385dada1ae3e969447f20a3164f6213100e75918101919091527377627828a55156b04ac0dc0eb30467f1a552bb039181019190915290565b4662aa36a70361023c575060408051606080820183525f8083526020808401829052928401528251908101835273f0ffdc93b7e186bc2f8cb3daa75d86d1930a433d81527392c920834ec8941d2c77d188936e1f7a6f49c1279181019190915273be0e383937d564d7ff0bc3b46c51f0bf8d5c311a9181019190915290565b46617a69036102ba575060408051606080820183525f808352602080840182905292840152825190810183527350157cffd6bbfa2dece204a89ec419c23ef5755d815273e3a9105a3a932253a70f126eb1e3b589c643dd249181019190915273be0e383937d564d7ff0bc3b46c51f0bf8d5c311a9181019190915290565b6040516373cac13b60e01b815260040160405180910390fd5b634e487b7160e01b5f52604160045260245ffd5b5f5f604083850312156102f8575f5ffd5b825160208401519092506001600160401b03811115610315575f5ffd5b8301601f81018513610325575f5ffd5b80516001600160401b0381111561033e5761033e6102d3565b604051601f8201601f19908116603f011681016001600160401b038111828210171561036c5761036c6102d3565b604052818152828201602001871015610383575f5ffd5b8160208401602083015e5f602083830101528093505050509250929050565b808201808211156103c157634e487b7160e01b5f52601160045260245ffd5b92915050565b600181811c908216806103db57607f821691505b6020821081036103f957634e487b7160e01b5f52602260045260245ffd5b50919050565b601f82111561044657805f5260205f20601f840160051c810160208510156104245750805b601f840160051c820191505b81811015610443575f8155600101610430565b50505b505050565b81516001600160401b03811115610464576104646102d3565b6104788161047284546103c7565b846103ff565b6020601f8211600181146104aa575f83156104935750848201515b5f19600385901b1c1916600184901b178455610443565b5f84815260208120601f198516915b828110156104d957878501518255602094850194600190920191016104b9565b50848210156104f657868401515f19600387901b60f8161c191681555b50505050600190811b01905550565b611331806105125f395ff3fe608060405234801561000f575f5ffd5b506004361061018f575f3560e01c806386433374116100dd578063b2a4d9ef11610088578063fb7ed92d11610063578063fb7ed92d1461037f578063fdf0afee14610396578063fe67a54b146103a9575f5ffd5b8063b2a4d9ef1461031d578063b40a562714610345578063d2639dbf1461035d575f5ffd5b80638da5cb5b116100b85780638da5cb5b146102d3578063a0cb9701146102e5578063a0fdf42c146102f5575f5ffd5b806386433374146102ae5780638927b030146102bb5780638c72a808146102c3575f5ffd5b806341ad56921161013d5780634d7d059a116101185780634d7d059a1461025257806351312a6b146102675780636511446a1461029a575f5ffd5b806341ad56921461021c5780634979440a146102415780634b449cba14610249575f5ffd5b80631b6c2a271161016d5780631b6c2a27146101f757806322f3e2d4146101ff57806340401fea14610207575f5ffd5b8063097920ee14610193578063143080a1146101c45780631b16bd7f146101da575b5f5ffd5b600c546101aa90600160e01b900463ffffffff1681565b60405163ffffffff90911681526020015b60405180910390f35b6101cc6103b1565b6040519081526020016101bb565b600d546101e79060ff1681565b60405190151581526020016101bb565b6101cc6103e4565b6101e7610417565b61020f610431565b6040516101bb91906110fc565b6101aa61022a36600461110e565b60066020525f908152604090205463ffffffff1681565b6101cc6104bd565b6101cc60025481565b61026561026036600461114c565b6104f0565b005b600c546102829064010000000090046001600160a01b031681565b6040516001600160a01b0390911681526020016101bb565b6008546101e790600160401b900460ff1681565b6003546101e79060ff1681565b6101cc610696565b600c546101aa9063ffffffff1681565b5f54610282906001600160a01b031681565b6008546101aa9063ffffffff1681565b61028261030336600461118c565b60076020525f90815260409020546001600160a01b031681565b6101cc61032b36600461110e565b6001600160a01b03165f9081526004602052604090205490565b6008546101aa90640100000000900463ffffffff1681565b6101e761036b36600461110e565b60056020525f908152604090205460ff1681565b600c546101aa90600160c01b900463ffffffff1681565b6102656103a43660046111a5565b61069f565b6102656108f1565b6008545f90600160401b900460ff166103dd5760405163a1f672bd60e01b815260040160405180910390fd5b50600a5490565b6008545f90600160401b900460ff166104105760405163a1f672bd60e01b815260040160405180910390fd5b50600b5490565b5f6002544210801561042c575060035460ff16155b905090565b6001805461043e9061121c565b80601f016020809104026020016040519081016040528092919081815260200182805461046a9061121c565b80156104b55780601f1061048c576101008083540402835291602001916104b5565b820191905f5260205f20905b81548152906001019060200180831161049857829003601f168201915b505050505081565b6008545f90600160401b900460ff166104e95760405163a1f672bd60e01b815260040160405180910390fd5b5060095490565b5f546001600160a01b0316331461051a57604051635fc483c560e01b815260040160405180910390fd5b60035460ff1661053d57604051636463738960e01b815260040160405180910390fd5b600d5460ff16156105615760405163a27c59cb60e01b815260040160405180910390fd5b63ffffffff83165f908152600760205260409020546001600160a01b03168061059d5760405163b47005fb60e01b815260040160405180910390fd5b600c805463ffffffff8681167fffffffffffffffff00000000000000000000000000000000000000000000000090921682176401000000006001600160a01b0386169081029190911777ffffffffffffffffffffffffffffffffffffffffffffffff16600160c01b8884169081027bffffffffffffffffffffffffffffffffffffffffffffffffffffffff1691909117600160e01b93881693840217909455600d805460ff1916600117905560408051938452602084019190915282810193909352606082015290517f48a58ba2f00bb6cd87b63633481f416a0155069023107ea09c2b1b86007bd0739181900360800190a150505050565b5f61042c6109e6565b6002544211806106b0575060025442145b806106bd575060035460ff165b156106db5760405163d02e774d60e01b815260040160405180910390fd5b335f9081526005602052604090205460ff161561070b576040516318f3c2ef60e11b815260040160405180910390fd5b335f9081526006602052604081205463ffffffff1690036107b35760088054335f818152600660209081526040808320805463ffffffff191663ffffffff9687161790558554851683526007909152812080547fffffffffffffffffffffffff000000000000000000000000000000000000000016909217909155825490916107949116611254565b91906101000a81548163ffffffff021916908363ffffffff1602179055505b335f908152600660209081526040808320548151601f860184900484028101840190925284825263ffffffff16929161080791879187908790819084018382808284375f92019190915250610a1a92505050565b90505f61081383610a8d565b335f9081526004602081815260408084208790556005909152909120805460ff19166001179055600880549293509161085a9063ffffffff64010000000090910416611254565b825463ffffffff9182166101009390930a9283029190920219909116179055335f9081526004602052604090205461089190610a9f565b50335f818152600460205260409020546108aa91610abf565b506108b58282610ae2565b604051429063ffffffff85169033907fb247e01a0807199be651d1625fef0a852c4ce30d8dfdc6e40f8c9b94e941eeb3905f90a4505050505050565b60025442101561091457604051630ca00c6160e01b815260040160405180910390fd5b60035460ff16156109385760405163059fb38360e51b815260040160405180910390fd5b600854600160401b900460ff166109625760405163a1f672bd60e01b815260040160405180910390fd5b6003805460ff191660011790556009545f5461098791906001600160a01b0316610abf565b50600a545f546109a091906001600160a01b0316610abf565b50600b545f546109b991906001600160a01b0316610abf565b5060405142907f2d7633a748a750b559b97738629efd586b561319b152bb42ba14d590706d31da905f90a2565b5f466001036109f55750600190565b4662aa36a703610a06575061271190565b46617a6903610a1557505f1990565b505f90565b5f81515f14610a3657610a2f83836004610bb6565b9050610a87565b825f819003610a5057610a485f610a8d565b915050610a87565b610a5a8133610cd6565b610a8457604051630276b5d960e01b81526004810182905233602482015260440160405180910390fd5b90505b92915050565b5f610a878263ffffffff166004610d75565b5f81610ab157610aae5f610a8d565b91505b610abb8230610e2a565b5090565b5f82610ad157610ace5f610a8d565b92505b610adb8383610e2a565b5090919050565b600854600160401b900460ff16610b26576009829055610b015f610a8d565b600a55600b8190556008805468ff00000000000000001916600160401b179055610b8e565b5f610b3383600954610eb3565b90505f610b4284600a54610eb3565b90505f610b5e83600954610b598589600a54610ee1565b610ee1565b90505f610b6e8487600954610ee1565b90505f610b7e8587600b54610ee1565b600a9390935550600955600b5550505b610b99600954610a9f565b50610ba5600a54610a9f565b50610bb1600b54610a9f565b505050565b7f9e7b61f58c47dc699ac88507c4f5bb9f121c03808c5676a8078fe583e46497015460405163045fc19560e11b81525f917f9e7b61f58c47dc699ac88507c4f5bb9f121c03808c5676a8078fe583e4649700916001600160a01b03909116906308bf832a90610c2f9088903390899089906004016112a4565b6020604051808303815f875af1158015610c4b573d5f5f3e3d5ffd5b505050506040513d601f19601f82011682018060405250810190610c6f91906112da565b8154604051630f8e573b60e21b8152600481018390523360248201529193506001600160a01b031690633e395cec906044015f604051808303815f87803b158015610cb8575f5ffd5b505af1158015610cca573d5f5f3e3d5ffd5b50505050509392505050565b5f807f9e7b61f58c47dc699ac88507c4f5bb9f121c03808c5676a8078fe583e464970080546040516382027b6d60e01b8152600481018790526001600160a01b0386811660248301529293509116906382027b6d90604401602060405180830381865afa158015610d49573d5f5f3e3d5ffd5b505050506040513d601f19601f82011682018060405250810190610d6d91906112f1565b949350505050565b7f9e7b61f58c47dc699ac88507c4f5bb9f121c03808c5676a8078fe583e464970154604051639cd07acb60e01b81525f917f9e7b61f58c47dc699ac88507c4f5bb9f121c03808c5676a8078fe583e4649700916001600160a01b0390911690639cd07acb90610dea9087908790600401611310565b6020604051808303815f875af1158015610e06573d5f5f3e3d5ffd5b505050506040513d601f19601f82011682018060405250810190610d6d91906112da565b5f7f9e7b61f58c47dc699ac88507c4f5bb9f121c03808c5676a8078fe583e46497008054604051635ca4b5b160e11b8152600481018690526001600160a01b03858116602483015292935091169063b9496b62906044015f604051808303815f87803b158015610e98575f5ffd5b505af1158015610eaa573d5f5f3e3d5ffd5b50505050505050565b5f82610ec557610ec25f610a8d565b92505b81610ed657610ed35f610a8d565b91505b610a8483835f610f2a565b5f83610ef357610ef05f61100a565b93505b82610f0457610f015f610a8d565b92505b81610f1557610f125f610a8d565b91505b610f20848484611025565b90505b9392505050565b5f5f8215610f3d5750600160f81b610f40565b505f5b5f7f9e7b61f58c47dc699ac88507c4f5bb9f121c03808c5676a8078fe583e464970060018101546040516385362ee760e01b815260048101899052602481018890527fff00000000000000000000000000000000000000000000000000000000000000851660448201529192506001600160a01b0316906385362ee7906064016020604051808303815f875af1158015610fdc573d5f5f3e3d5ffd5b505050506040513d601f19601f8201168201806040525081019061100091906112da565b9695505050505050565b5f610a8782611019575f61101c565b60015b60ff165f610d75565b5f807f9e7b61f58c47dc699ac88507c4f5bb9f121c03808c5676a8078fe583e46497006001810154604051637702dcff60e01b81526004810188905260248101879052604481018690529192506001600160a01b031690637702dcff906064016020604051808303815f875af11580156110a1573d5f5f3e3d5ffd5b505050506040513d601f19601f820116820180604052508101906110c591906112da565b95945050505050565b5f81518084528060208401602086015e5f602082860101526020601f19601f83011685010191505092915050565b602081525f610a8460208301846110ce565b5f6020828403121561111e575f5ffd5b81356001600160a01b0381168114610f23575f5ffd5b803563ffffffff81168114611147575f5ffd5b919050565b5f5f5f6060848603121561115e575f5ffd5b61116784611134565b925061117560208501611134565b915061118360408501611134565b90509250925092565b5f6020828403121561119c575f5ffd5b610a8482611134565b5f5f5f604084860312156111b7575f5ffd5b83359250602084013567ffffffffffffffff8111156111d4575f5ffd5b8401601f810186136111e4575f5ffd5b803567ffffffffffffffff8111156111fa575f5ffd5b86602082840101111561120b575f5ffd5b939660209190910195509293505050565b600181811c9082168061123057607f821691505b60208210810361124e57634e487b7160e01b5f52602260045260245ffd5b50919050565b5f63ffffffff821663ffffffff810361127b57634e487b7160e01b5f52601160045260245ffd5b60010192915050565b605481106112a057634e487b7160e01b5f52602160045260245ffd5b9052565b8481526001600160a01b0384166020820152608060408201525f6112cb60808301856110ce565b90506110c56060830184611284565b5f602082840312156112ea575f5ffd5b5051919050565b5f60208284031215611301575f5ffd5b81518015158114610f23575f5ffd5b82815260408101610f23602083018461128456fea164736f6c634300081b000a",
  "linkReferences": {},
  "deployedLinkReferences": {}
}