{
  "_format": "hh-sol-artifact-1",
  "contractName": "SealedBidAuction",
  "sourceName": "contracts/SealedBidAuction.sol",
  "abi": [
    {
      "inputs": [
        {
          "internalType": "uint256",
          "name": "biddingDuration",
          "type": "uint256"
        },
        {
          "internalType": "string",
          "name": "auctionItemName",
          "type": "string"
        }
      ],
      "stateMutability": "nonpayable",
      "type": "constructor"
    },
    {
      "inputs": [],
      "name": "AuctionAlreadyEnded",
      "type": "error"
    },
    {
      "inputs": [],
      "name": "AuctionAlreadyFinalized",
      "type": "error"
    },
    {
      "inputs": [],
      "name": "AuctionStillActive",
      "type": "error"
    },
    {
      "inputs": [],
      "name": "BidAlreadySubmitted",
      "type": "error"
    },
    {
      "inputs": [],
      "name": "NoBidYet",
      "type": "error"
    },
    {
      "inputs": [
        {
          "internalType": "bytes32",
          "name": "handle",
          "type": "bytes32"
        },
        {
          "internalType": "address",
          "name": "sender",
          "type": "address"
        }
      ],
      "name": "SenderNotAllowedToUseHandle",
      "type": "error"
    },
    {
      "inputs": [],
      "name": "ZamaProtocolUnsupported",
      "type": "error"
    },
    {
      "anonymous": false,
      "inputs": [
        {
          "indexed": true,
          "internalType": "uint256",
          "name": "timestamp",
          "type": "uint256"
        }
      ],
      "name": "AuctionFinalized",
      "type": "event"
    },
    {
      "anonymous": false,
      "inputs": [
        {
          "indexed": true,
          "internalType": "address",
          "name": "bidder",
          "type": "address"
        },
        {
          "indexed": true,
          "internalType": "uint32",
          "name": "bidderId",
          "type": "uint32"
        },
        {
          "indexed": true,
          "internalType": "uint256",
          "name": "timestamp",
          "type": "uint256"
        }
      ],
      "name": "BidSubmitted",
      "type": "event"
    },
    {
      "inputs": [],
      "name": "auctionEndTime",
      "outputs": [
        {
          "internalType": "uint256",
          "name": "",
          "type": "uint256"
        }
      ],
      "stateMutability": "view",
      "type": "function"
    },
    {
      "inputs": [],
      "name": "auctionEnded",
      "outputs": [
        {
          "internalType": "bool",
          "name": "",
          "type": "bool"
        }
      ],
      "stateMutability": "view",
      "type": "function"
    },
    {
      "inputs": [],
      "name": "bidCount",
      "outputs": [
        {
          "internalType": "uint32",
          "name": "",
          "type": "uint32"
        }
      ],
      "stateMutability": "view",
      "type": "function"
    },
    {
      "inputs": [
        {
          "internalType": "uint32",
          "name": "id",
          "type": "uint32"
        }
      ],
      "name": "bidderById",
      "outputs": [
        {
          "internalType": "address",
          "name": "bidder",
          "type": "address"
        }
      ],
      "stateMutability": "view",
      "type": "function"
    },
    {
      "inputs": [
        {
          "internalType": "address",
          "name": "bidder",
          "type": "address"
        }
      ],
      "name": "bidderIds",
      "outputs": [
        {
          "internalType": "uint32",
          "name": "id",
          "type": "uint32"
        }
      ],
      "stateMutability": "view",
      "type": "function"
    },
    {
      "inputs": [],
      "name": "confidentialProtocolId",
      "outputs": [
        {
          "internalType": "uint256",
          "name": "",
          "type": "uint256"
        }
      ],
      "stateMutability": "view",
      "type": "function"
    },
    {
      "inputs": [],
      "name": "endAuction",
      "outputs": [],
      "stateMutability": "nonpayable",
      "type": "function"
    },
    {
      "inputs": [
        {
          "internalType": "address",
          "name": "bidder",
          "type": "address"
        }
      ],
      "name": "getEncryptedBid",
      "outputs": [
        {
          "internalType": "euint32",
          "name": "",
          "type": "bytes32"
        }
      ],
      "stateMutability": "view",
      "type": "function"
    },
    {
      "inputs": [],
      "name": "getEncryptedWinnerId",
      "outputs": [
        {
          "internalType": "euint32",
          "name": "",
          "type": "bytes32"
        }
      ],
      "stateMutability": "view",
      "type": "function"
    },
    {
      "inputs": [],
      "name": "getHighestBid",
      "outputs": [
        {
          "internalType": "euint32",
          "name": "",
          "type": "bytes32"
        }
      ],
      "stateMutability": "view",
      "type": "function"
    },
    {
      "inputs": [],
      "name": "getSecondHighestBid",
      "outputs": [
        {
          "internalType": "euint32",
          "name": "",
          "type": "bytes32"
        }
      ],
      "stateMutability": "view",
      "type": "function"
    },
    {
      "inputs": [],
      "name": "hasAnyBid",
      "outputs": [
        {
          "internalType": "bool",
          "name": "",
          "type": "bool"
        }
      ],
      "stateMutability": "view",
      "type": "function"
    },
    {
      "inputs": [
        {
          "internalType": "address",
          "name": "bidder",
          "type": "address"
        }
      ],
      "name": "hasBid",
      "outputs": [
        {
          "internalType": "bool",
          "name": "submitted",
          "type": "bool"
        }
      ],
      "stateMutability": "view",
      "type": "function"
    },
    {
      "inputs": [],
      "name": "isActive",
      "outputs": [
        {
          "internalType": "bool",
          "name": "",
          "type": "bool"
        }
      ],
      "stateMutability": "view",
      "type": "function"
    },
    {
      "inputs": [],
      "name": "itemName",
      "outputs": [
        {
          "internalType": "string",
          "name": "",
          "type": "string"
        }
      ],
      "stateMutability": "view",
      "type": "function"
    },
    {
      "inputs": [],
      "name": "nextBidderId",
      "outputs": [
        {
          "internalType": "uint32",
          "name": "",
          "type": "uint32"
        }
      ],
      "stateMutability": "view",
      "type": "function"
    },
    {
      "inputs": [],
      "name": "owner",
      "outputs": [
        {
          "internalType": "address",
          "name": "",
          "type": "address"
        }
      ],
      "stateMutability": "view",
      "type": "function"
    },
    {
      "inputs": [
        {
          "internalType": "externalEuint32",
          "name": "inputBid",
          "type": "bytes32"
        },
        {
          "internalType": "bytes",
          "name": "inputProof",
          "type": "bytes"
        }
      ],
      "name": "submitBid",
      "outputs": [],
      "stateMutability": "nonpayable",
      "type": "function"
    }
  ],
  "bytecode": "0x60806040526008805463ffffffff1916600117905534801561001f575f5ffd5b5060405161157638038061157683398101604081905261003e916102e7565b6100f2610049610124565b80517f9e7b61f58c47dc699ac88507c4f5bb9f121c03808c5676a8078fe583e464970080546001600160a01b03199081166001600160a01b039384161790915560208301517f9e7b61f58c47dc699ac88507c4f5bb9f121c03808c5676a8078fe583e46497018054831691841691909117905560408301517f9e7b61f58c47dc699ac88507c4f5bb9f121c03808c5676a8078fe583e46497028054909216921691909117905550565b5f80546001600160a01b0319163317905561010d82426103a2565b600255600161011c828261044b565b505050610505565b604080516060810182525f8082526020820181905291810191909152466001036101bd575060408051606080820183525f8083526020808401829052928401528251908101835273ca2e8f1f656cd25c01f05d0b243ab1ecd4a8ffb6815273d82385dada1ae3e969447f20a3164f6213100e75918101919091527377627828a55156b04ac0dc0eb30467f1a552bb039181019190915290565b4662aa36a70361023c575060408051606080820183525f8083526020808401829052928401528251908101835273f0ffdc93b7e186bc2f8cb3daa75d86d1930a433d81527392c920834ec8941d2c77d188936e1f7a6f49c1279181019190915273be0e383937d564d7ff0bc3b46c51f0bf8d5c311a9181019190915290565b46617a69036102ba575060408051606080820183525f808352602080840182905292840152825190810183527350157cffd6bbfa2dece204a89ec419c23ef5755d815273e3a9105a3a932253a70f126eb1e3b589c643dd249181019190915273901f8942346f7ab3a01f6d7613119bca447bb0309181019190915290565b6040516373cac13b60e01b815260040160405180910390fd5b634e487b7160e01b5f52604160045260245ffd5b5f5f604083850312156102f8575f5ffd5b825160208401519092506001600160401b03811115610315575f5ffd5b8301601f81018513610325575f5ffd5b80516001600160401b0381111561033e5761033e6102d3565b604051601f8201601f19908116603f011681016001600160401b038111828210171561036c5761036c6102d3565b604052818152828201602001871015610383575f5ffd5b8160208401602083015e5f602083830101528093505050509250929050565b808201808211156103c157634e487b7160e01b5f52601160045260245ffd5b92915050565b600181811c908216806103db57607f821691505b6020821081036103f957634e487b7160e01b5f52602260045260245ffd5b50919050565b601f82111561044657805f5260205f20601f840160051c810160208510156104245750805b601f840160051c820191505b81811015610443575f8155600101610430565b50505b505050565b81516001600160401b03811115610464576104646102d3565b6104788161047284546103c7565b846103ff565b6020601f8211600181146104aa575f83156104935750848201515b5f19600385901b1c1916600184901b178455610443565b5f84815260208120601f198516915b828110156104d957878501518255602094850194600190920191016104b9565b50848210156104f657868401515f19600387901b60f8161c191681555b50505050600190811b01905550565b611064806105125f395ff3fe608060405234801561000f575f5ffd5b506004361061012f575f3560e01c80638927b030116100ad578063b2a4d9ef1161007d578063d2639dbf11610063578063d2639dbf14610299578063fdf0afee146102bb578063fe67a54b146102d0575f5ffd5b8063b2a4d9ef14610259578063b40a562714610281575f5ffd5b80638927b030146101ef5780638da5cb5b146101f7578063a0cb970114610221578063a0fdf42c14610231575f5ffd5b806341ad5692116101025780634b449cba116100e85780634b449cba146101c55780636511446a146101ce57806386433374146101e2575f5ffd5b806341ad5692146101835780634979440a146101bd575f5ffd5b8063143080a1146101335780631b6c2a271461014e57806322f3e2d41461015657806340401fea1461016e575b5f5ffd5b61013b6102d8565b6040519081526020015b60405180910390f35b61013b61030b565b61015e61033e565b6040519015158152602001610145565b610176610358565b6040516101459190610e7d565b6101a8610191366004610e8f565b60066020525f908152604090205463ffffffff1681565b60405163ffffffff9091168152602001610145565b61013b6103e4565b61013b60025481565b60085461015e90600160401b900460ff1681565b60035461015e9060ff1681565b61013b610417565b5f54610209906001600160a01b031681565b6040516001600160a01b039091168152602001610145565b6008546101a89063ffffffff1681565b61020961023f366004610eb5565b60076020525f90815260409020546001600160a01b031681565b61013b610267366004610e8f565b6001600160a01b03165f9081526004602052604090205490565b6008546101a890640100000000900463ffffffff1681565b61015e6102a7366004610e8f565b60056020525f908152604090205460ff1681565b6102ce6102c9366004610ed8565b610420565b005b6102ce610672565b6008545f90600160401b900460ff166103045760405163a1f672bd60e01b815260040160405180910390fd5b50600a5490565b6008545f90600160401b900460ff166103375760405163a1f672bd60e01b815260040160405180910390fd5b50600b5490565b5f60025442108015610353575060035460ff16155b905090565b6001805461036590610f4f565b80601f016020809104026020016040519081016040528092919081815260200182805461039190610f4f565b80156103dc5780601f106103b3576101008083540402835291602001916103dc565b820191905f5260205f20905b8154815290600101906020018083116103bf57829003601f168201915b505050505081565b6008545f90600160401b900460ff166104105760405163a1f672bd60e01b815260040160405180910390fd5b5060095490565b5f610353610767565b600254421180610431575060025442145b8061043e575060035460ff165b1561045c5760405163d02e774d60e01b815260040160405180910390fd5b335f9081526005602052604090205460ff161561048c576040516318f3c2ef60e11b815260040160405180910390fd5b335f9081526006602052604081205463ffffffff1690036105345760088054335f818152600660209081526040808320805463ffffffff191663ffffffff9687161790558554851683526007909152812080547fffffffffffffffffffffffff000000000000000000000000000000000000000016909217909155825490916105159116610f87565b91906101000a81548163ffffffff021916908363ffffffff1602179055505b335f908152600660209081526040808320548151601f860184900484028101840190925284825263ffffffff16929161058891879187908790819084018382808284375f9201919091525061079b92505050565b90505f6105948361080e565b335f9081526004602081815260408084208790556005909152909120805460ff1916600117905560088054929350916105db9063ffffffff64010000000090910416610f87565b825463ffffffff9182166101009390930a9283029190920219909116179055335f9081526004602052604090205461061290610820565b50335f8181526004602052604090205461062b91610840565b506106368282610863565b604051429063ffffffff85169033907fb247e01a0807199be651d1625fef0a852c4ce30d8dfdc6e40f8c9b94e941eeb3905f90a4505050505050565b60025442101561069557604051630ca00c6160e01b815260040160405180910390fd5b60035460ff16156106b95760405163059fb38360e51b815260040160405180910390fd5b600854600160401b900460ff166106e35760405163a1f672bd60e01b815260040160405180910390fd5b6003805460ff191660011790556009545f5461070891906001600160a01b0316610840565b50600a545f5461072191906001600160a01b0316610840565b50600b545f5461073a91906001600160a01b0316610840565b5060405142907f2d7633a748a750b559b97738629efd586b561319b152bb42ba14d590706d31da905f90a2565b5f466001036107765750600190565b4662aa36a703610787575061271190565b46617a690361079657505f1990565b505f90565b5f81515f146107b7576107b083836004610937565b9050610808565b825f8190036107d1576107c95f61080e565b915050610808565b6107db8133610a57565b61080557604051630276b5d960e01b81526004810182905233602482015260440160405180910390fd5b90505b92915050565b5f6108088263ffffffff166004610af6565b5f816108325761082f5f61080e565b91505b61083c8230610bab565b5090565b5f826108525761084f5f61080e565b92505b61085c8383610bab565b5090919050565b600854600160401b900460ff166108a75760098290556108825f61080e565b600a55600b8190556008805468ff00000000000000001916600160401b17905561090f565b5f6108b483600954610c34565b90505f6108c384600a54610c34565b90505f6108df836009546108da8589600a54610c62565b610c62565b90505f6108ef8487600954610c62565b90505f6108ff8587600b54610c62565b600a9390935550600955600b5550505b61091a600954610820565b50610926600a54610820565b50610932600b54610820565b505050565b7f9e7b61f58c47dc699ac88507c4f5bb9f121c03808c5676a8078fe583e46497015460405163045fc19560e11b81525f917f9e7b61f58c47dc699ac88507c4f5bb9f121c03808c5676a8078fe583e4649700916001600160a01b03909116906308bf832a906109b0908890339089908990600401610fd7565b6020604051808303815f875af11580156109cc573d5f5f3e3d5ffd5b505050506040513d601f19601f820116820180604052508101906109f0919061100d565b8154604051630f8e573b60e21b8152600481018390523360248201529193506001600160a01b031690633e395cec906044015f604051808303815f87803b158015610a39575f5ffd5b505af1158015610a4b573d5f5f3e3d5ffd5b50505050509392505050565b5f807f9e7b61f58c47dc699ac88507c4f5bb9f121c03808c5676a8078fe583e464970080546040516382027b6d60e01b8152600481018790526001600160a01b0386811660248301529293509116906382027b6d90604401602060405180830381865afa158015610aca573d5f5f3e3d5ffd5b505050506040513d601f19601f82011682018060405250810190610aee9190611024565b949350505050565b7f9e7b61f58c47dc699ac88507c4f5bb9f121c03808c5676a8078fe583e464970154604051639cd07acb60e01b81525f917f9e7b61f58c47dc699ac88507c4f5bb9f121c03808c5676a8078fe583e4649700916001600160a01b0390911690639cd07acb90610b6b9087908790600401611043565b6020604051808303815f875af1158015610b87573d5f5f3e3d5ffd5b505050506040513d601f19601f82011682018060405250810190610aee919061100d565b5f7f9e7b61f58c47dc699ac88507c4f5bb9f121c03808c5676a8078fe583e46497008054604051635ca4b5b160e11b8152600481018690526001600160a01b03858116602483015292935091169063b9496b62906044015f604051808303815f87803b158015610c19575f5ffd5b505af1158015610c2b573d5f5f3e3d5ffd5b50505050505050565b5f82610c4657610c435f61080e565b92505b81610c5757610c545f61080e565b91505b61080583835f610cab565b5f83610c7457610c715f610d8b565b93505b82610c8557610c825f61080e565b92505b81610c9657610c935f61080e565b91505b610ca1848484610da6565b90505b9392505050565b5f5f8215610cbe5750600160f81b610cc1565b505f5b5f7f9e7b61f58c47dc699ac88507c4f5bb9f121c03808c5676a8078fe583e464970060018101546040516385362ee760e01b815260048101899052602481018890527fff00000000000000000000000000000000000000000000000000000000000000851660448201529192506001600160a01b0316906385362ee7906064016020604051808303815f875af1158015610d5d573d5f5f3e3d5ffd5b505050506040513d601f19601f82011682018060405250810190610d81919061100d565b9695505050505050565b5f61080882610d9a575f610d9d565b60015b60ff165f610af6565b5f807f9e7b61f58c47dc699ac88507c4f5bb9f121c03808c5676a8078fe583e46497006001810154604051637702dcff60e01b81526004810188905260248101879052604481018690529192506001600160a01b031690637702dcff906064016020604051808303815f875af1158015610e22573d5f5f3e3d5ffd5b505050506040513d601f19601f82011682018060405250810190610e46919061100d565b95945050505050565b5f81518084528060208401602086015e5f602082860101526020601f19601f83011685010191505092915050565b602081525f6108056020830184610e4f565b5f60208284031215610e9f575f5ffd5b81356001600160a01b0381168114610ca4575f5ffd5b5f60208284031215610ec5575f5ffd5b813563ffffffff81168114610ca4575f5ffd5b5f5f5f60408486031215610eea575f5ffd5b83359250602084013567ffffffffffffffff811115610f07575f5ffd5b8401601f81018613610f17575f5ffd5b803567ffffffffffffffff811115610f2d575f5ffd5b866020828401011115610f3e575f5ffd5b939660209190910195509293505050565b600181811c90821680610f6357607f821691505b602082108103610f8157634e487b7160e01b5f52602260045260245ffd5b50919050565b5f63ffffffff821663ffffffff8103610fae57634e487b7160e01b5f52601160045260245ffd5b60010192915050565b60548110610fd357634e487b7160e01b5f52602160045260245ffd5b9052565b8481526001600160a01b0384166020820152608060408201525f610ffe6080830185610e4f565b9050610e466060830184610fb7565b5f6020828403121561101d575f5ffd5b5051919050565b5f60208284031215611034575f5ffd5b81518015158114610ca4575f5ffd5b82815260408101610ca46020830184610fb756fea164736f6c634300081b000a",
  "linkReferences": {},
  "deployedLinkReferences": {}
}